{
  "_format": "hh-sol-artifact-1",
  "contractName": "Transactions",
  "sourceName": "contracts/Transactions.sol",
  "abi": [
    {
      "inputs": [],
      "stateMutability": "nonpayable",
      "type": "constructor"
    },
    {
      "anonymous": false,
      "inputs": [
        {
          "indexed": false,
          "internalType": "address",
          "name": "from",
          "type": "address"
        },
        {
          "indexed": false,
          "internalType": "address",
          "name": "to",
          "type": "address"
        },
        {
          "indexed": false,
          "internalType": "uint256",
          "name": "amount",
          "type": "uint256"
        }
      ],
      "name": "Sent",
      "type": "event"
    },
    {
      "anonymous": false,
      "inputs": [
        {
          "indexed": false,
          "internalType": "address",
          "name": "from",
          "type": "address"
        },
        {
          "indexed": false,
          "internalType": "address",
          "name": "receiver",
          "type": "address"
        },
        {
          "indexed": false,
          "internalType": "uint256",
          "name": "amount",
          "type": "uint256"
        },
        {
          "indexed": false,
          "internalType": "string",
          "name": "message",
          "type": "string"
        },
        {
          "indexed": false,
          "internalType": "uint256",
          "name": "timestamp",
          "type": "uint256"
        },
        {
          "indexed": false,
          "internalType": "string",
          "name": "keyword",
          "type": "string"
        }
      ],
      "name": "Transfer",
      "type": "event"
    },
    {
      "inputs": [
        {
          "internalType": "address payable",
          "name": "receiver",
          "type": "address"
        },
        {
          "internalType": "uint256",
          "name": "amount",
          "type": "uint256"
        },
        {
          "internalType": "string",
          "name": "message",
          "type": "string"
        },
        {
          "internalType": "string",
          "name": "keyword",
          "type": "string"
        }
      ],
      "name": "addToBlockchain",
      "outputs": [],
      "stateMutability": "nonpayable",
      "type": "function"
    },
    {
      "inputs": [
        {
          "internalType": "address",
          "name": "",
          "type": "address"
        }
      ],
      "name": "balances",
      "outputs": [
        {
          "internalType": "uint256",
          "name": "",
          "type": "uint256"
        }
      ],
      "stateMutability": "view",
      "type": "function"
    },
    {
      "inputs": [],
      "name": "getAllTransactions",
      "outputs": [
        {
          "components": [
            {
              "internalType": "address",
              "name": "sender",
              "type": "address"
            },
            {
              "internalType": "address",
              "name": "receiver",
              "type": "address"
            },
            {
              "internalType": "uint256",
              "name": "amount",
              "type": "uint256"
            },
            {
              "internalType": "string",
              "name": "message",
              "type": "string"
            },
            {
              "internalType": "uint256",
              "name": "timestamp",
              "type": "uint256"
            },
            {
              "internalType": "string",
              "name": "keyword",
              "type": "string"
            }
          ],
          "internalType": "struct Transactions.TransferStruct[]",
          "name": "",
          "type": "tuple[]"
        }
      ],
      "stateMutability": "view",
      "type": "function"
    },
    {
      "inputs": [],
      "name": "getTransactionCount",
      "outputs": [
        {
          "internalType": "uint256",
          "name": "",
          "type": "uint256"
        }
      ],
      "stateMutability": "view",
      "type": "function"
    },
    {
      "inputs": [
        {
          "internalType": "address",
          "name": "receiver",
          "type": "address"
        },
        {
          "internalType": "uint256",
          "name": "amount",
          "type": "uint256"
        }
      ],
      "name": "mint",
      "outputs": [],
      "stateMutability": "nonpayable",
      "type": "function"
    },
    {
      "inputs": [],
      "name": "minter",
      "outputs": [
        {
          "internalType": "address",
          "name": "",
          "type": "address"
        }
      ],
      "stateMutability": "view",
      "type": "function"
    }
  ],
  "bytecode": "0x608060405234801561001057600080fd5b50336000806101000a81548173ffffffffffffffffffffffffffffffffffffffff021916908373ffffffffffffffffffffffffffffffffffffffff160217905550610e34806100606000396000f3fe608060405234801561001057600080fd5b50600436106100625760003560e01c8063075461721461006757806327506f531461008557806327e235e3146100a35780632e7700f0146100d357806340c10f19146100f1578063cc2d7ead1461010d575b600080fd5b61006f610129565b60405161007c9190610a3f565b60405180910390f35b61008d61014d565b60405161009a9190610ac9565b60405180910390f35b6100bd60048036038101906100b89190610771565b610390565b6040516100ca9190610aeb565b60405180910390f35b6100db6103a8565b6040516100e89190610aeb565b60405180910390f35b61010b6004803603810190610106919061082d565b6103b2565b005b6101276004803603810190610122919061079a565b610464565b005b60008054906101000a900473ffffffffffffffffffffffffffffffffffffffff1681565b60606003805480602002602001604051908101604052809291908181526020016000905b8282101561038757838290600052602060002090600602016040518060c00160405290816000820160009054906101000a900473ffffffffffffffffffffffffffffffffffffffff1673ffffffffffffffffffffffffffffffffffffffff1673ffffffffffffffffffffffffffffffffffffffff1681526020016001820160009054906101000a900473ffffffffffffffffffffffffffffffffffffffff1673ffffffffffffffffffffffffffffffffffffffff1673ffffffffffffffffffffffffffffffffffffffff1681526020016002820154815260200160038201805461025a90610ce9565b80601f016020809104026020016040519081016040528092919081815260200182805461028690610ce9565b80156102d35780601f106102a8576101008083540402835291602001916102d3565b820191906000526020600020905b8154815290600101906020018083116102b657829003601f168201915b50505050508152602001600482015481526020016005820180546102f690610ce9565b80601f016020809104026020016040519081016040528092919081815260200182805461032290610ce9565b801561036f5780601f106103445761010080835404028352916020019161036f565b820191906000526020600020905b81548152906001019060200180831161035257829003601f168201915b50505050508152505081526020019060010190610171565b50505050905090565b60016020528060005260406000206000915090505481565b6000600254905090565b60008054906101000a900473ffffffffffffffffffffffffffffffffffffffff1673ffffffffffffffffffffffffffffffffffffffff163373ffffffffffffffffffffffffffffffffffffffff161461040a57600080fd5b80600160008473ffffffffffffffffffffffffffffffffffffffff1673ffffffffffffffffffffffffffffffffffffffff16815260200190815260200160002060008282546104599190610bcd565b925050819055505050565b6001600260008282546104779190610bcd565b9250508190555060036040518060c001604052803373ffffffffffffffffffffffffffffffffffffffff1681526020018673ffffffffffffffffffffffffffffffffffffffff16815260200185815260200184815260200142815260200183815250908060018154018082558091505060019003906000526020600020906006020160009091909190915060008201518160000160006101000a81548173ffffffffffffffffffffffffffffffffffffffff021916908373ffffffffffffffffffffffffffffffffffffffff16021790555060208201518160010160006101000a81548173ffffffffffffffffffffffffffffffffffffffff021916908373ffffffffffffffffffffffffffffffffffffffff1602179055506040820151816002015560608201518160030190805190602001906105b6929190610627565b506080820151816004015560a08201518160050190805190602001906105dd929190610627565b5050507f416cfa4330a4565f45c2fd2dd4826a83a37443aba2ce6f79477c7355afac35fa33858585428660405161061996959493929190610a5a565b60405180910390a150505050565b82805461063390610ce9565b90600052602060002090601f016020900481019282610655576000855561069c565b82601f1061066e57805160ff191683800117855561069c565b8280016001018555821561069c579182015b8281111561069b578251825591602001919060010190610680565b5b5090506106a991906106ad565b5090565b5b808211156106c65760008160009055506001016106ae565b5090565b60006106dd6106d884610b37565b610b06565b9050828152602081018484840111156106f557600080fd5b610700848285610ca7565b509392505050565b60008135905061071781610db9565b92915050565b60008135905061072c81610dd0565b92915050565b600082601f83011261074357600080fd5b81356107538482602086016106ca565b91505092915050565b60008135905061076b81610de7565b92915050565b60006020828403121561078357600080fd5b600061079184828501610708565b91505092915050565b600080600080608085870312156107b057600080fd5b60006107be8782880161071d565b94505060206107cf8782880161075c565b935050604085013567ffffffffffffffff8111156107ec57600080fd5b6107f887828801610732565b925050606085013567ffffffffffffffff81111561081557600080fd5b61082187828801610732565b91505092959194509250565b6000806040838503121561084057600080fd5b600061084e85828601610708565b925050602061085f8582860161075c565b9150509250929050565b60006108758383610991565b905092915050565b61088681610c71565b82525050565b61089581610c23565b82525050565b6108a481610c23565b82525050565b60006108b582610b77565b6108bf8185610b9a565b9350836020820285016108d185610b67565b8060005b8581101561090d57848403895281516108ee8582610869565b94506108f983610b8d565b925060208a019950506001810190506108d5565b50829750879550505050505092915050565b600061092a82610b82565b6109348185610bab565b9350610944818560208601610cb6565b61094d81610da8565b840191505092915050565b600061096382610b82565b61096d8185610bbc565b935061097d818560208601610cb6565b61098681610da8565b840191505092915050565b600060c0830160008301516109a9600086018261088c565b5060208301516109bc602086018261088c565b5060408301516109cf6040860182610a21565b50606083015184820360608601526109e7828261091f565b91505060808301516109fc6080860182610a21565b5060a083015184820360a0860152610a14828261091f565b9150508091505092915050565b610a2a81610c67565b82525050565b610a3981610c67565b82525050565b6000602082019050610a54600083018461089b565b92915050565b600060c082019050610a6f600083018961089b565b610a7c602083018861087d565b610a896040830187610a30565b8181036060830152610a9b8186610958565b9050610aaa6080830185610a30565b81810360a0830152610abc8184610958565b9050979650505050505050565b60006020820190508181036000830152610ae381846108aa565b905092915050565b6000602082019050610b006000830184610a30565b92915050565b6000604051905081810181811067ffffffffffffffff82111715610b2d57610b2c610d79565b5b8060405250919050565b600067ffffffffffffffff821115610b5257610b51610d79565b5b601f19601f8301169050602081019050919050565b6000819050602082019050919050565b600081519050919050565b600081519050919050565b6000602082019050919050565b600082825260208201905092915050565b600082825260208201905092915050565b600082825260208201905092915050565b6000610bd882610c67565b9150610be383610c67565b9250827fffffffffffffffffffffffffffffffffffffffffffffffffffffffffffffffff03821115610c1857610c17610d1b565b5b828201905092915050565b6000610c2e82610c47565b9050919050565b6000610c4082610c47565b9050919050565b600073ffffffffffffffffffffffffffffffffffffffff82169050919050565b6000819050919050565b6000610c7c82610c83565b9050919050565b6000610c8e82610c95565b9050919050565b6000610ca082610c47565b9050919050565b82818337600083830152505050565b60005b83811015610cd4578082015181840152602081019050610cb9565b83811115610ce3576000848401525b50505050565b60006002820490506001821680610d0157607f821691505b60208210811415610d1557610d14610d4a565b5b50919050565b7f4e487b7100000000000000000000000000000000000000000000000000000000600052601160045260246000fd5b7f4e487b7100000000000000000000000000000000000000000000000000000000600052602260045260246000fd5b7f4e487b7100000000000000000000000000000000000000000000000000000000600052604160045260246000fd5b6000601f19601f8301169050919050565b610dc281610c23565b8114610dcd57600080fd5b50565b610dd981610c35565b8114610de457600080fd5b50565b610df081610c67565b8114610dfb57600080fd5b5056fea26469706673582212202c609cffafa77cb8c98dbf06541464e4b3d47c48bc3b9f8fa1aa7785498d445564736f6c63430008000033",
  "linkReferences": {},
  "deployedLinkReferences": {}
}